{
  "_format": "hh-sol-artifact-1",
  "contractName": "Vote",
  "sourceName": "contracts/Vote.sol",
  "abi": [
    {
      "inputs": [
        {
          "internalType": "string[]",
          "name": "_candidates",
          "type": "string[]"
        }
      ],
      "stateMutability": "nonpayable",
      "type": "constructor"
    },
    {
      "anonymous": false,
      "inputs": [
        {
          "indexed": false,
          "internalType": "string[]",
          "name": "candidates",
          "type": "string[]"
        },
        {
          "indexed": false,
          "internalType": "uint256[]",
          "name": "results",
          "type": "uint256[]"
        }
      ],
      "name": "ElectionEnded",
      "type": "event"
    },
    {
      "anonymous": false,
      "inputs": [],
      "name": "ElectionReset",
      "type": "event"
    },
    {
      "inputs": [],
      "name": "MAX_VOTERS",
      "outputs": [
        {
          "internalType": "uint256",
          "name": "",
          "type": "uint256"
        }
      ],
      "stateMutability": "view",
      "type": "function"
    },
    {
      "inputs": [],
      "name": "admin",
      "outputs": [
        {
          "internalType": "address",
          "name": "",
          "type": "address"
        }
      ],
      "stateMutability": "view",
      "type": "function"
    },
    {
      "inputs": [
        {
          "internalType": "uint256",
          "name": "",
          "type": "uint256"
        }
      ],
      "name": "candidates",
      "outputs": [
        {
          "internalType": "string",
          "name": "",
          "type": "string"
        }
      ],
      "stateMutability": "view",
      "type": "function"
    },
    {
      "inputs": [],
      "name": "getAllCandidates",
      "outputs": [
        {
          "internalType": "string[]",
          "name": "",
          "type": "string[]"
        }
      ],
      "stateMutability": "view",
      "type": "function"
    },
    {
      "inputs": [],
      "name": "getAllVotes",
      "outputs": [
        {
          "internalType": "string[]",
          "name": "",
          "type": "string[]"
        },
        {
          "internalType": "uint256[]",
          "name": "",
          "type": "uint256[]"
        }
      ],
      "stateMutability": "view",
      "type": "function"
    },
    {
      "inputs": [
        {
          "internalType": "address",
          "name": "",
          "type": "address"
        }
      ],
      "name": "hasVoted",
      "outputs": [
        {
          "internalType": "bool",
          "name": "",
          "type": "bool"
        }
      ],
      "stateMutability": "view",
      "type": "function"
    },
    {
      "inputs": [],
      "name": "isElectionActive",
      "outputs": [
        {
          "internalType": "bool",
          "name": "",
          "type": "bool"
        }
      ],
      "stateMutability": "view",
      "type": "function"
    },
    {
      "inputs": [],
      "name": "registerVoter",
      "outputs": [],
      "stateMutability": "nonpayable",
      "type": "function"
    },
    {
      "inputs": [
        {
          "internalType": "address",
          "name": "",
          "type": "address"
        }
      ],
      "name": "registeredVoters",
      "outputs": [
        {
          "internalType": "bool",
          "name": "",
          "type": "bool"
        }
      ],
      "stateMutability": "view",
      "type": "function"
    },
    {
      "inputs": [
        {
          "internalType": "string",
          "name": "candidate",
          "type": "string"
        }
      ],
      "name": "vote",
      "outputs": [],
      "stateMutability": "nonpayable",
      "type": "function"
    },
    {
      "inputs": [],
      "name": "voterCount",
      "outputs": [
        {
          "internalType": "uint256",
          "name": "",
          "type": "uint256"
        }
      ],
      "stateMutability": "view",
      "type": "function"
    },
    {
      "inputs": [
        {
          "internalType": "string",
          "name": "",
          "type": "string"
        }
      ],
      "name": "votes",
      "outputs": [
        {
          "internalType": "uint256",
          "name": "",
          "type": "uint256"
        }
      ],
      "stateMutability": "view",
      "type": "function"
    }
  ],
  "bytecode": "0x608060405234801561001057600080fd5b5060405161241c38038061241c833981810160405281019061003291906103df565b336000806101000a81548173ffffffffffffffffffffffffffffffffffffffff021916908373ffffffffffffffffffffffffffffffffffffffff16021790555080600390805190602001906100889291906100aa565b506001600260006101000a81548160ff0219169083151502179055505061071b565b8280548282559060005260206000209081019282156100f2579160200282015b828111156100f15782518290816100e19190610649565b50916020019190600101906100ca565b5b5090506100ff9190610103565b5090565b5b80821115610123576000818161011a9190610127565b50600101610104565b5090565b50805461013390610462565b6000825580601f106101455750610164565b601f0160209004906000526020600020908101906101639190610167565b5b50565b5b80821115610180576000816000905550600101610168565b5090565b6000604051905090565b600080fd5b600080fd5b600080fd5b6000601f19601f8301169050919050565b7f4e487b7100000000000000000000000000000000000000000000000000000000600052604160045260246000fd5b6101e68261019d565b810181811067ffffffffffffffff82111715610205576102046101ae565b5b80604052505050565b6000610218610184565b905061022482826101dd565b919050565b600067ffffffffffffffff821115610244576102436101ae565b5b602082029050602081019050919050565b600080fd5b600080fd5b600067ffffffffffffffff82111561027a576102796101ae565b5b6102838261019d565b9050602081019050919050565b60005b838110156102ae578082015181840152602081019050610293565b60008484015250505050565b60006102cd6102c88461025f565b61020e565b9050828152602081018484840111156102e9576102e861025a565b5b6102f4848285610290565b509392505050565b600082601f83011261031157610310610198565b5b81516103218482602086016102ba565b91505092915050565b600061033d61033884610229565b61020e565b905080838252602082019050602084028301858111156103605761035f610255565b5b835b818110156103a757805167ffffffffffffffff81111561038557610384610198565b5b80860161039289826102fc565b85526020850194505050602081019050610362565b5050509392505050565b600082601f8301126103c6576103c5610198565b5b81516103d684826020860161032a565b91505092915050565b6000602082840312156103f5576103f461018e565b5b600082015167ffffffffffffffff81111561041357610412610193565b5b61041f848285016103b1565b91505092915050565b600081519050919050565b7f4e487b7100000000000000000000000000000000000000000000000000000000600052602260045260246000fd5b6000600282049050600182168061047a57607f821691505b60208210810361048d5761048c610433565b5b50919050565b60008190508160005260206000209050919050565b60006020601f8301049050919050565b600082821b905092915050565b6000600883026104f57fffffffffffffffffffffffffffffffffffffffffffffffffffffffffffffffff826104b8565b6104ff86836104b8565b95508019841693508086168417925050509392505050565b6000819050919050565b6000819050919050565b600061054661054161053c84610517565b610521565b610517565b9050919050565b6000819050919050565b6105608361052b565b61057461056c8261054d565b8484546104c5565b825550505050565b600090565b61058961057c565b610594818484610557565b505050565b5b818110156105b8576105ad600082610581565b60018101905061059a565b5050565b601f8211156105fd576105ce81610493565b6105d7846104a8565b810160208510156105e6578190505b6105fa6105f2856104a8565b830182610599565b50505b505050565b600082821c905092915050565b600061062060001984600802610602565b1980831691505092915050565b6000610639838361060f565b9150826002028217905092915050565b61065282610428565b67ffffffffffffffff81111561066b5761066a6101ae565b5b6106758254610462565b6106808282856105bc565b600060209050601f8311600181146106b357600084156106a1578287015190505b6106ab858261062d565b865550610713565b601f1984166106c186610493565b60005b828110156106e9578489015182556001820191506020850194506020810190506106c4565b868310156107065784890151610702601f89168261060f565b8355505b6001600288020188555050505b505050505050565b611cf28061072a6000396000f3fe608060405234801561001057600080fd5b50600436106100b45760003560e01c8063a9ff6df111610071578063a9ff6df114610192578063b99ef1fa146101c2578063c8442239146101f2578063ecb617d914610210578063f851a4401461021a578063fc36e15b14610238576100b4565b806309eef43e146100b95780632e6997fe146100e95780633477ee2e146101075780633ceed6921461013757806342169e4814610155578063851b6ef214610173575b600080fd5b6100d360048036038101906100ce9190611061565b610254565b6040516100e091906110a9565b60405180910390f35b6100f1610274565b6040516100fe9190611216565b60405180910390f35b610121600480360381019061011c919061126e565b61034d565b60405161012e91906112e5565b60405180910390f35b61013f6103f9565b60405161014c9190611316565b60405180910390f35b61015d6103fe565b60405161016a9190611316565b60405180910390f35b61017b610404565b6040516101899291906113ef565b60405180910390f35b6101ac60048036038101906101a79190611061565b6105b1565b6040516101b991906110a9565b60405180910390f35b6101dc60048036038101906101d7919061155b565b6105d1565b6040516101e99190611316565b60405180910390f35b6101fa6105ff565b60405161020791906110a9565b60405180910390f35b610218610612565b005b610222610808565b60405161022f91906115b3565b60405180910390f35b610252600480360381019061024d919061155b565b61082c565b005b60066020528060005260406000206000915054906101000a900460ff1681565b60606003805480602002602001604051908101604052809291908181526020016000905b828210156103445783829060005260206000200180546102b7906115fd565b80601f01602080910402602001604051908101604052809291908181526020018280546102e3906115fd565b80156103305780601f1061030557610100808354040283529160200191610330565b820191906000526020600020905b81548152906001019060200180831161031357829003601f168201915b505050505081526020019060010190610298565b50505050905090565b6003818154811061035d57600080fd5b906000526020600020016000915090508054610378906115fd565b80601f01602080910402602001604051908101604052809291908181526020018280546103a4906115fd565b80156103f15780601f106103c6576101008083540402835291602001916103f1565b820191906000526020600020905b8154815290600101906020018083116103d457829003601f168201915b505050505081565b600281565b60015481565b606080600060038054905067ffffffffffffffff81111561042857610427611430565b5b6040519080825280602002602001820160405280156104565781602001602082028036833780820191505090505b50905060005b6003805490508110156104d15760046003828154811061047f5761047e61162e565b5b906000526020600020016040516104969190611700565b9081526020016040518091039020548282815181106104b8576104b761162e565b5b602002602001018181525050808060010191505061045c565b5060038181805480602002602001604051908101604052809291908181526020016000905b828210156105a2578382906000526020600020018054610515906115fd565b80601f0160208091040260200160405190810160405280929190818152602001828054610541906115fd565b801561058e5780601f106105635761010080835404028352916020019161058e565b820191906000526020600020905b81548152906001019060200180831161057157829003601f168201915b5050505050815260200190600101906104f6565b50505050915092509250509091565b60056020528060005260406000206000915054906101000a900460ff1681565b6004818051602081018201805184825260208301602085012081835280955050505050506000915090505481565b600260009054906101000a900460ff1681565b600260009054906101000a900460ff16610661576040517f08c379a000000000000000000000000000000000000000000000000000000000815260040161065890611763565b60405180910390fd5b600560003373ffffffffffffffffffffffffffffffffffffffff1673ffffffffffffffffffffffffffffffffffffffff16815260200190815260200160002060009054906101000a900460ff16156106ee576040517f08c379a00000000000000000000000000000000000000000000000000000000081526004016106e5906117cf565b60405180910390fd5b600260015410610733576040517f08c379a000000000000000000000000000000000000000000000000000000000815260040161072a9061183b565b60405180910390fd5b6001600560003373ffffffffffffffffffffffffffffffffffffffff1673ffffffffffffffffffffffffffffffffffffffff16815260200190815260200160002060006101000a81548160ff0219169083151502179055506007339080600181540180825580915050600190039060005260206000200160009091909190916101000a81548173ffffffffffffffffffffffffffffffffffffffff021916908373ffffffffffffffffffffffffffffffffffffffff160217905550600160008154809291906108019061188a565b9190505550565b60008054906101000a900473ffffffffffffffffffffffffffffffffffffffff1681565b600260009054906101000a900460ff1661087b576040517f08c379a000000000000000000000000000000000000000000000000000000000815260040161087290611763565b60405180910390fd5b600560003373ffffffffffffffffffffffffffffffffffffffff1673ffffffffffffffffffffffffffffffffffffffff16815260200190815260200160002060009054906101000a900460ff16610907576040517f08c379a00000000000000000000000000000000000000000000000000000000081526004016108fe9061191e565b60405180910390fd5b600660003373ffffffffffffffffffffffffffffffffffffffff1673ffffffffffffffffffffffffffffffffffffffff16815260200190815260200160002060009054906101000a900460ff1615610994576040517f08c379a000000000000000000000000000000000000000000000000000000000815260040161098b9061198a565b60405180910390fd5b61099d81610a8f565b6109dc576040517f08c379a00000000000000000000000000000000000000000000000000000000081526004016109d3906119f6565b60405180910390fd5b6004816040516109ec9190611a47565b90815260200160405180910390206000815480929190610a0b9061188a565b91905055506001600660003373ffffffffffffffffffffffffffffffffffffffff1673ffffffffffffffffffffffffffffffffffffffff16815260200190815260200160002060006101000a81548160ff0219169083151502179055506002600154148015610a7e5750610a7d610b06565b5b15610a8c57610a8b610b7e565b5b50565b600080600090505b600380549050811015610afb57828051906020012060038281548110610ac057610abf61162e565b5b90600052602060002001604051610ad79190611b01565b604051809103902003610aee576001915050610b01565b8080600101915050610a97565b50600090505b919050565b6000806000905060005b600380549050811015610b7357600460038281548110610b3357610b3261162e565b5b90600052602060002001604051610b4a9190611700565b90815260200160405180910390205482610b649190611b18565b91508080600101915050610b10565b506002811491505090565b6000806000805b600380549050811015610c7b5782600460038381548110610ba957610ba861162e565b5b90600052602060002001604051610bc09190611700565b9081526020016040518091039020541115610c1c57600460038281548110610beb57610bea61162e565b5b90600052602060002001604051610c029190611700565b908152602001604051809103902054925060019150610c6e565b82600460038381548110610c3357610c3261162e565b5b90600052602060002001604051610c4a9190611700565b90815260200160405180910390205403610c6d578180610c699061188a565b9250505b5b8080600101915050610b85565b506001811115610c8a57600192505b8215610cc957610c98610df0565b7f8d1085cd9eceaab0b77fd20c66dea55df08e5ef2d52859c2cb4a1e16ba9476c060405160405180910390a1610deb565b600060038054905067ffffffffffffffff811115610cea57610ce9611430565b5b604051908082528060200260200182016040528015610d185781602001602082028036833780820191505090505b50905060005b600380549050811015610d9357600460038281548110610d4157610d4061162e565b5b90600052602060002001604051610d589190611700565b908152602001604051809103902054828281518110610d7a57610d7961162e565b5b6020026020010181815250508080600101915050610d1e565b506000600260006101000a81548160ff0219169083151502179055507f5307445eae14e5c3a1fd633e10241b45b785bc0041c676494a1d9b20ee8898b5600382604051610de1929190611c85565b60405180910390a1505b505050565b60005b600380549050811015610e4e576000600460038381548110610e1857610e1761162e565b5b90600052602060002001604051610e2f9190611700565b9081526020016040518091039020819055508080600101915050610df3565b5060005b600780549050811015610f985760006005600060078481548110610e7957610e7861162e565b5b9060005260206000200160009054906101000a900473ffffffffffffffffffffffffffffffffffffffff1673ffffffffffffffffffffffffffffffffffffffff1673ffffffffffffffffffffffffffffffffffffffff16815260200190815260200160002060006101000a81548160ff02191690831515021790555060006006600060078481548110610f0f57610f0e61162e565b5b9060005260206000200160009054906101000a900473ffffffffffffffffffffffffffffffffffffffff1673ffffffffffffffffffffffffffffffffffffffff1673ffffffffffffffffffffffffffffffffffffffff16815260200190815260200160002060006101000a81548160ff0219169083151502179055508080600101915050610e52565b5060076000610fa79190610fb1565b6000600181905550565b5080546000825590600052602060002090810190610fcf9190610fd2565b50565b5b80821115610feb576000816000905550600101610fd3565b5090565b6000604051905090565b600080fd5b600080fd5b600073ffffffffffffffffffffffffffffffffffffffff82169050919050565b600061102e82611003565b9050919050565b61103e81611023565b811461104957600080fd5b50565b60008135905061105b81611035565b92915050565b60006020828403121561107757611076610ff9565b5b60006110858482850161104c565b91505092915050565b60008115159050919050565b6110a38161108e565b82525050565b60006020820190506110be600083018461109a565b92915050565b600081519050919050565b600082825260208201905092915050565b6000819050602082019050919050565b600081519050919050565b600082825260208201905092915050565b60005b8381101561112a57808201518184015260208101905061110f565b60008484015250505050565b6000601f19601f8301169050919050565b6000611152826110f0565b61115c81856110fb565b935061116c81856020860161110c565b61117581611136565b840191505092915050565b600061118c8383611147565b905092915050565b6000602082019050919050565b60006111ac826110c4565b6111b681856110cf565b9350836020820285016111c8856110e0565b8060005b8581101561120457848403895281516111e58582611180565b94506111f083611194565b925060208a019950506001810190506111cc565b50829750879550505050505092915050565b6000602082019050818103600083015261123081846111a1565b905092915050565b6000819050919050565b61124b81611238565b811461125657600080fd5b50565b60008135905061126881611242565b92915050565b60006020828403121561128457611283610ff9565b5b600061129284828501611259565b91505092915050565b600082825260208201905092915050565b60006112b7826110f0565b6112c1818561129b565b93506112d181856020860161110c565b6112da81611136565b840191505092915050565b600060208201905081810360008301526112ff81846112ac565b905092915050565b61131081611238565b82525050565b600060208201905061132b6000830184611307565b92915050565b600081519050919050565b600082825260208201905092915050565b6000819050602082019050919050565b61136681611238565b82525050565b6000611378838361135d565b60208301905092915050565b6000602082019050919050565b600061139c82611331565b6113a6818561133c565b93506113b18361134d565b8060005b838110156113e25781516113c9888261136c565b97506113d483611384565b9250506001810190506113b5565b5085935050505092915050565b6000604082019050818103600083015261140981856111a1565b9050818103602083015261141d8184611391565b90509392505050565b600080fd5b600080fd5b7f4e487b7100000000000000000000000000000000000000000000000000000000600052604160045260246000fd5b61146882611136565b810181811067ffffffffffffffff8211171561148757611486611430565b5b80604052505050565b600061149a610fef565b90506114a6828261145f565b919050565b600067ffffffffffffffff8211156114c6576114c5611430565b5b6114cf82611136565b9050602081019050919050565b82818337600083830152505050565b60006114fe6114f9846114ab565b611490565b90508281526020810184848401111561151a5761151961142b565b5b6115258482856114dc565b509392505050565b600082601f83011261154257611541611426565b5b81356115528482602086016114eb565b91505092915050565b60006020828403121561157157611570610ff9565b5b600082013567ffffffffffffffff81111561158f5761158e610ffe565b5b61159b8482850161152d565b91505092915050565b6115ad81611023565b82525050565b60006020820190506115c860008301846115a4565b92915050565b7f4e487b7100000000000000000000000000000000000000000000000000000000600052602260045260246000fd5b6000600282049050600182168061161557607f821691505b602082108103611628576116276115ce565b5b50919050565b7f4e487b7100000000000000000000000000000000000000000000000000000000600052603260045260246000fd5b600081905092915050565b60008190508160005260206000209050919050565b6000815461168a816115fd565b611694818661165d565b945060018216600081146116af57600181146116c4576116f7565b60ff19831686528115158202860193506116f7565b6116cd85611668565b60005b838110156116ef578154818901526001820191506020810190506116d0565b838801955050505b50505092915050565b600061170c828461167d565b915081905092915050565b7f456c656374696f6e206973206e6f742061637469766500000000000000000000600082015250565b600061174d60168361129b565b915061175882611717565b602082019050919050565b6000602082019050818103600083015261177c81611740565b9050919050565b7f416c726561647920726567697374657265642e00000000000000000000000000600082015250565b60006117b960138361129b565b91506117c482611783565b602082019050919050565b600060208201905081810360008301526117e8816117ac565b9050919050565b7f4d6178696d756d206e756d626572206f6620766f746572732072656163686564600082015250565b600061182560208361129b565b9150611830826117ef565b602082019050919050565b6000602082019050818103600083015261185481611818565b9050919050565b7f4e487b7100000000000000000000000000000000000000000000000000000000600052601160045260246000fd5b600061189582611238565b91507fffffffffffffffffffffffffffffffffffffffffffffffffffffffffffffffff82036118c7576118c661185b565b5b600182019050919050565b7f596f75206d757374206265207265676973746572656420746f20766f74652e00600082015250565b6000611908601f8361129b565b9150611913826118d2565b602082019050919050565b60006020820190508181036000830152611937816118fb565b9050919050565b7f596f75206861766520616c726561647920766f7465642e000000000000000000600082015250565b600061197460178361129b565b915061197f8261193e565b602082019050919050565b600060208201905081810360008301526119a381611967565b9050919050565b7f496e76616c69642063616e6469646174652e0000000000000000000000000000600082015250565b60006119e060128361129b565b91506119eb826119aa565b602082019050919050565b60006020820190508181036000830152611a0f816119d3565b9050919050565b6000611a21826110f0565b611a2b818561165d565b9350611a3b81856020860161110c565b80840191505092915050565b6000611a538284611a16565b915081905092915050565b600081905092915050565b60008190508160005260206000209050919050565b60008154611a8b816115fd565b611a958186611a5e565b94506001821660008114611ab05760018114611ac557611af8565b60ff1983168652811515820286019350611af8565b611ace85611a69565b60005b83811015611af057815481890152600182019150602081019050611ad1565b838801955050505b50505092915050565b6000611b0d8284611a7e565b915081905092915050565b6000611b2382611238565b9150611b2e83611238565b9250828201905080821115611b4657611b4561185b565b5b92915050565b600081549050919050565b60008190508160005260206000209050919050565b60008154611b79816115fd565b611b8381866110fb565b94506001821660008114611b9e5760018114611bb457611be7565b60ff198316865281151560200286019350611be7565b611bbd85611668565b60005b83811015611bdf57815481890152600182019150602081019050611bc0565b808801955050505b50505092915050565b6000611bfc8383611b6c565b905092915050565b6000600182019050919050565b6000611c1c82611b4c565b611c2681856110cf565b935083602082028501611c3885611b57565b8060005b85811015611c7357848403895281611c548582611bf0565b9450611c5f83611c04565b925060208a01995050600181019050611c3c565b50829750879550505050505092915050565b60006040820190508181036000830152611c9f8185611c11565b90508181036020830152611cb38184611391565b9050939250505056fea2646970667358221220cab9e43c3735d7923a2e9403cc98d241e94d2c995c6813941b7f9a466a847e3d64736f6c634300081c0033",
  "linkReferences": {},
  "deployedLinkReferences": {}
}