{
  "_format": "hh-sol-artifact-1",
  "contractName": "Vote",
  "sourceName": "contracts/Vote.sol",
  "abi": [
    {
      "inputs": [
        {
          "internalType": "string[]",
          "name": "_candidates",
          "type": "string[]"
        }
      ],
      "stateMutability": "nonpayable",
      "type": "constructor"
    },
    {
      "anonymous": false,
      "inputs": [
        {
          "indexed": false,
          "internalType": "string[]",
          "name": "candidates",
          "type": "string[]"
        },
        {
          "indexed": false,
          "internalType": "uint256[]",
          "name": "results",
          "type": "uint256[]"
        }
      ],
      "name": "ElectionEnded",
      "type": "event"
    },
    {
      "anonymous": false,
      "inputs": [],
      "name": "ElectionReset",
      "type": "event"
    },
    {
      "anonymous": false,
      "inputs": [],
      "name": "ElectionRestarted",
      "type": "event"
    },
    {
      "inputs": [],
      "name": "MAX_VOTERS",
      "outputs": [
        {
          "internalType": "uint256",
          "name": "",
          "type": "uint256"
        }
      ],
      "stateMutability": "view",
      "type": "function"
    },
    {
      "inputs": [],
      "name": "admin",
      "outputs": [
        {
          "internalType": "address",
          "name": "",
          "type": "address"
        }
      ],
      "stateMutability": "view",
      "type": "function"
    },
    {
      "inputs": [
        {
          "internalType": "uint256",
          "name": "",
          "type": "uint256"
        }
      ],
      "name": "candidates",
      "outputs": [
        {
          "internalType": "string",
          "name": "",
          "type": "string"
        }
      ],
      "stateMutability": "view",
      "type": "function"
    },
    {
      "inputs": [],
      "name": "getAllCandidates",
      "outputs": [
        {
          "internalType": "string[]",
          "name": "",
          "type": "string[]"
        }
      ],
      "stateMutability": "view",
      "type": "function"
    },
    {
      "inputs": [],
      "name": "getAllVotes",
      "outputs": [
        {
          "internalType": "string[]",
          "name": "",
          "type": "string[]"
        },
        {
          "internalType": "uint256[]",
          "name": "",
          "type": "uint256[]"
        }
      ],
      "stateMutability": "view",
      "type": "function"
    },
    {
      "inputs": [],
      "name": "getWinner",
      "outputs": [
        {
          "internalType": "string",
          "name": "",
          "type": "string"
        }
      ],
      "stateMutability": "view",
      "type": "function"
    },
    {
      "inputs": [
        {
          "internalType": "address",
          "name": "",
          "type": "address"
        }
      ],
      "name": "hasVoted",
      "outputs": [
        {
          "internalType": "bool",
          "name": "",
          "type": "bool"
        }
      ],
      "stateMutability": "view",
      "type": "function"
    },
    {
      "inputs": [],
      "name": "isElectionActive",
      "outputs": [
        {
          "internalType": "bool",
          "name": "",
          "type": "bool"
        }
      ],
      "stateMutability": "view",
      "type": "function"
    },
    {
      "inputs": [],
      "name": "registerVoter",
      "outputs": [],
      "stateMutability": "nonpayable",
      "type": "function"
    },
    {
      "inputs": [
        {
          "internalType": "address",
          "name": "",
          "type": "address"
        }
      ],
      "name": "registeredVoters",
      "outputs": [
        {
          "internalType": "bool",
          "name": "",
          "type": "bool"
        }
      ],
      "stateMutability": "view",
      "type": "function"
    },
    {
      "inputs": [],
      "name": "restartElection",
      "outputs": [],
      "stateMutability": "nonpayable",
      "type": "function"
    },
    {
      "inputs": [
        {
          "internalType": "string",
          "name": "candidate",
          "type": "string"
        }
      ],
      "name": "vote",
      "outputs": [],
      "stateMutability": "nonpayable",
      "type": "function"
    },
    {
      "inputs": [],
      "name": "voterCount",
      "outputs": [
        {
          "internalType": "uint256",
          "name": "",
          "type": "uint256"
        }
      ],
      "stateMutability": "view",
      "type": "function"
    },
    {
      "inputs": [
        {
          "internalType": "string",
          "name": "",
          "type": "string"
        }
      ],
      "name": "votes",
      "outputs": [
        {
          "internalType": "uint256",
          "name": "",
          "type": "uint256"
        }
      ],
      "stateMutability": "view",
      "type": "function"
    }
  ],
  "bytecode": "0x608060405234801561001057600080fd5b50604051612c12380380612c12833981810160405281019061003291906103df565b336000806101000a81548173ffffffffffffffffffffffffffffffffffffffff021916908373ffffffffffffffffffffffffffffffffffffffff16021790555080600390805190602001906100889291906100aa565b506001600260006101000a81548160ff0219169083151502179055505061071b565b8280548282559060005260206000209081019282156100f2579160200282015b828111156100f15782518290816100e19190610649565b50916020019190600101906100ca565b5b5090506100ff9190610103565b5090565b5b80821115610123576000818161011a9190610127565b50600101610104565b5090565b50805461013390610462565b6000825580601f106101455750610164565b601f0160209004906000526020600020908101906101639190610167565b5b50565b5b80821115610180576000816000905550600101610168565b5090565b6000604051905090565b600080fd5b600080fd5b600080fd5b6000601f19601f8301169050919050565b7f4e487b7100000000000000000000000000000000000000000000000000000000600052604160045260246000fd5b6101e68261019d565b810181811067ffffffffffffffff82111715610205576102046101ae565b5b80604052505050565b6000610218610184565b905061022482826101dd565b919050565b600067ffffffffffffffff821115610244576102436101ae565b5b602082029050602081019050919050565b600080fd5b600080fd5b600067ffffffffffffffff82111561027a576102796101ae565b5b6102838261019d565b9050602081019050919050565b60005b838110156102ae578082015181840152602081019050610293565b60008484015250505050565b60006102cd6102c88461025f565b61020e565b9050828152602081018484840111156102e9576102e861025a565b5b6102f4848285610290565b509392505050565b600082601f83011261031157610310610198565b5b81516103218482602086016102ba565b91505092915050565b600061033d61033884610229565b61020e565b905080838252602082019050602084028301858111156103605761035f610255565b5b835b818110156103a757805167ffffffffffffffff81111561038557610384610198565b5b80860161039289826102fc565b85526020850194505050602081019050610362565b5050509392505050565b600082601f8301126103c6576103c5610198565b5b81516103d684826020860161032a565b91505092915050565b6000602082840312156103f5576103f461018e565b5b600082015167ffffffffffffffff81111561041357610412610193565b5b61041f848285016103b1565b91505092915050565b600081519050919050565b7f4e487b7100000000000000000000000000000000000000000000000000000000600052602260045260246000fd5b6000600282049050600182168061047a57607f821691505b60208210810361048d5761048c610433565b5b50919050565b60008190508160005260206000209050919050565b60006020601f8301049050919050565b600082821b905092915050565b6000600883026104f57fffffffffffffffffffffffffffffffffffffffffffffffffffffffffffffffff826104b8565b6104ff86836104b8565b95508019841693508086168417925050509392505050565b6000819050919050565b6000819050919050565b600061054661054161053c84610517565b610521565b610517565b9050919050565b6000819050919050565b6105608361052b565b61057461056c8261054d565b8484546104c5565b825550505050565b600090565b61058961057c565b610594818484610557565b505050565b5b818110156105b8576105ad600082610581565b60018101905061059a565b5050565b601f8211156105fd576105ce81610493565b6105d7846104a8565b810160208510156105e6578190505b6105fa6105f2856104a8565b830182610599565b50505b505050565b600082821c905092915050565b600061062060001984600802610602565b1980831691505092915050565b6000610639838361060f565b9150826002028217905092915050565b61065282610428565b67ffffffffffffffff81111561066b5761066a6101ae565b5b6106758254610462565b6106808282856105bc565b600060209050601f8311600181146106b357600084156106a1578287015190505b6106ab858261062d565b865550610713565b601f1984166106c186610493565b60005b828110156106e9578489015182556001820191506020850194506020810190506106c4565b868310156107065784890151610702601f89168261060f565b8355505b6001600288020188555050505b505050505050565b6124e88061072a6000396000f3fe608060405234801561001057600080fd5b50600436106100ea5760003560e01c80638e7ea5b21161008c578063c844223911610066578063c844223914610250578063ecb617d91461026e578063f851a44014610278578063fc36e15b14610296576100ea565b80638e7ea5b2146101d2578063a9ff6df1146101f0578063b99ef1fa14610220576100ea565b80633ceed692116100c85780633ceed6921461016d5780633d946c531461018b57806342169e4814610195578063851b6ef2146101b3576100ea565b806309eef43e146100ef5780632e6997fe1461011f5780633477ee2e1461013d575b600080fd5b610109600480360381019061010491906116ed565b6102b2565b6040516101169190611735565b60405180910390f35b6101276102d2565b60405161013491906118a2565b60405180910390f35b610157600480360381019061015291906118fa565b6103ab565b6040516101649190611971565b60405180910390f35b610175610457565b60405161018291906119a2565b60405180910390f35b61019361045c565b005b61019d610742565b6040516101aa91906119a2565b60405180910390f35b6101bb610748565b6040516101c9929190611a7b565b60405180910390f35b6101da6108f5565b6040516101e79190611971565b60405180910390f35b61020a600480360381019061020591906116ed565b610c22565b6040516102179190611735565b60405180910390f35b61023a60048036038101906102359190611be7565b610c42565b60405161024791906119a2565b60405180910390f35b610258610c70565b6040516102659190611735565b60405180910390f35b610276610c83565b005b610280610e79565b60405161028d9190611c3f565b60405180910390f35b6102b060048036038101906102ab9190611be7565b610e9d565b005b60066020528060005260406000206000915054906101000a900460ff1681565b60606003805480602002602001604051908101604052809291908181526020016000905b828210156103a257838290600052602060002001805461031590611c89565b80601f016020809104026020016040519081016040528092919081815260200182805461034190611c89565b801561038e5780601f106103635761010080835404028352916020019161038e565b820191906000526020600020905b81548152906001019060200180831161037157829003601f168201915b5050505050815260200190600101906102f6565b50505050905090565b600381815481106103bb57600080fd5b9060005260206000200160009150905080546103d690611c89565b80601f016020809104026020016040519081016040528092919081815260200182805461040290611c89565b801561044f5780601f106104245761010080835404028352916020019161044f565b820191906000526020600020905b81548152906001019060200180831161043257829003601f168201915b505050505081565b600281565b60008054906101000a900473ffffffffffffffffffffffffffffffffffffffff1673ffffffffffffffffffffffffffffffffffffffff163373ffffffffffffffffffffffffffffffffffffffff16146104ea576040517f08c379a00000000000000000000000000000000000000000000000000000000081526004016104e190611d2c565b60405180910390fd5b600260009054906101000a900460ff161561053a576040517f08c379a000000000000000000000000000000000000000000000000000000000815260040161053190611d98565b60405180910390fd5b60005b60038054905081101561059857600060046003838154811061056257610561611db8565b5b906000526020600020016040516105799190611e8a565b908152602001604051809103902081905550808060010191505061053d565b5060005b6007805490508110156106e257600060056000600784815481106105c3576105c2611db8565b5b9060005260206000200160009054906101000a900473ffffffffffffffffffffffffffffffffffffffff1673ffffffffffffffffffffffffffffffffffffffff1673ffffffffffffffffffffffffffffffffffffffff16815260200190815260200160002060006101000a81548160ff0219169083151502179055506000600660006007848154811061065957610658611db8565b5b9060005260206000200160009054906101000a900473ffffffffffffffffffffffffffffffffffffffff1673ffffffffffffffffffffffffffffffffffffffff1673ffffffffffffffffffffffffffffffffffffffff16815260200190815260200160002060006101000a81548160ff021916908315150217905550808060010191505061059c565b50600760006106f1919061163d565b60006001819055506001600260006101000a81548160ff0219169083151502179055507f705bb1d30124292403fb5dd6177313c4a5a9acfff9748364f73ec1f635ff69c360405160405180910390a1565b60015481565b606080600060038054905067ffffffffffffffff81111561076c5761076b611abc565b5b60405190808252806020026020018201604052801561079a5781602001602082028036833780820191505090505b50905060005b600380549050811015610815576004600382815481106107c3576107c2611db8565b5b906000526020600020016040516107da9190611e8a565b9081526020016040518091039020548282815181106107fc576107fb611db8565b5b60200260200101818152505080806001019150506107a0565b5060038181805480602002602001604051908101604052809291908181526020016000905b828210156108e657838290600052602060002001805461085990611c89565b80601f016020809104026020016040519081016040528092919081815260200182805461088590611c89565b80156108d25780601f106108a7576101008083540402835291602001916108d2565b820191906000526020600020905b8154815290600101906020018083116108b557829003601f168201915b50505050508152602001906001019061083a565b50505050915092509250509091565b6060600260009054906101000a900460ff1615610947576040517f08c379a000000000000000000000000000000000000000000000000000000000815260040161093e90611eed565b60405180910390fd5b6000600360008154811061095e5761095d611db8565b5b90600052602060002001805461097390611c89565b80601f016020809104026020016040519081016040528092919081815260200182805461099f90611c89565b80156109ec5780601f106109c1576101008083540402835291602001916109ec565b820191906000526020600020905b8154815290600101906020018083116109cf57829003601f168201915b50505050509050600060046003600081548110610a0c57610a0b611db8565b5b90600052602060002001604051610a239190611e8a565b9081526020016040518091039020549050600080600190505b600380549050811015610bd15782600460038381548110610a6057610a5f611db8565b5b90600052602060002001604051610a779190611e8a565b9081526020016040518091039020541115610b7c5760038181548110610aa057610a9f611db8565b5b906000526020600020018054610ab590611c89565b80601f0160208091040260200160405190810160405280929190818152602001828054610ae190611c89565b8015610b2e5780601f10610b0357610100808354040283529160200191610b2e565b820191906000526020600020905b815481529060010190602001808311610b1157829003601f168201915b50505050509350600460038281548110610b4b57610b4a611db8565b5b90600052602060002001604051610b629190611e8a565b908152602001604051809103902054925060009150610bc4565b82600460038381548110610b9357610b92611db8565b5b90600052602060002001604051610baa9190611e8a565b90815260200160405180910390205403610bc357600191505b5b8080600101915050610a3c565b508015610c18576040518060400160405280600381526020017f54696500000000000000000000000000000000000000000000000000000000008152509350505050610c1f565b8293505050505b90565b60056020528060005260406000206000915054906101000a900460ff1681565b6004818051602081018201805184825260208301602085012081835280955050505050506000915090505481565b600260009054906101000a900460ff1681565b600260009054906101000a900460ff16610cd2576040517f08c379a0000000000000000000000000000000000000000000000000000000008152600401610cc990611f59565b60405180910390fd5b600560003373ffffffffffffffffffffffffffffffffffffffff1673ffffffffffffffffffffffffffffffffffffffff16815260200190815260200160002060009054906101000a900460ff1615610d5f576040517f08c379a0000000000000000000000000000000000000000000000000000000008152600401610d5690611fc5565b60405180910390fd5b600260015410610da4576040517f08c379a0000000000000000000000000000000000000000000000000000000008152600401610d9b90612031565b60405180910390fd5b6001600560003373ffffffffffffffffffffffffffffffffffffffff1673ffffffffffffffffffffffffffffffffffffffff16815260200190815260200160002060006101000a81548160ff0219169083151502179055506007339080600181540180825580915050600190039060005260206000200160009091909190916101000a81548173ffffffffffffffffffffffffffffffffffffffff021916908373ffffffffffffffffffffffffffffffffffffffff16021790555060016000815480929190610e7290612080565b9190505550565b60008054906101000a900473ffffffffffffffffffffffffffffffffffffffff1681565b600260009054906101000a900460ff16610eec576040517f08c379a0000000000000000000000000000000000000000000000000000000008152600401610ee390611f59565b60405180910390fd5b600560003373ffffffffffffffffffffffffffffffffffffffff1673ffffffffffffffffffffffffffffffffffffffff16815260200190815260200160002060009054906101000a900460ff16610f78576040517f08c379a0000000000000000000000000000000000000000000000000000000008152600401610f6f90612114565b60405180910390fd5b600660003373ffffffffffffffffffffffffffffffffffffffff1673ffffffffffffffffffffffffffffffffffffffff16815260200190815260200160002060009054906101000a900460ff1615611005576040517f08c379a0000000000000000000000000000000000000000000000000000000008152600401610ffc90612180565b60405180910390fd5b61100e81611100565b61104d576040517f08c379a0000000000000000000000000000000000000000000000000000000008152600401611044906121ec565b60405180910390fd5b60048160405161105d919061223d565b9081526020016040518091039020600081548092919061107c90612080565b91905055506001600660003373ffffffffffffffffffffffffffffffffffffffff1673ffffffffffffffffffffffffffffffffffffffff16815260200190815260200160002060006101000a81548160ff02191690831515021790555060026001541480156110ef57506110ee611177565b5b156110fd576110fc6111ef565b5b50565b600080600090505b60038054905081101561116c5782805190602001206003828154811061113157611130611db8565b5b9060005260206000200160405161114891906122f7565b60405180910390200361115f576001915050611172565b8080600101915050611108565b50600090505b919050565b6000806000905060005b6003805490508110156111e4576004600382815481106111a4576111a3611db8565b5b906000526020600020016040516111bb9190611e8a565b908152602001604051809103902054826111d5919061230e565b91508080600101915050611181565b506002811491505090565b6000806000805b6003805490508110156112ec578260046003838154811061121a57611219611db8565b5b906000526020600020016040516112319190611e8a565b908152602001604051809103902054111561128d5760046003828154811061125c5761125b611db8565b5b906000526020600020016040516112739190611e8a565b9081526020016040518091039020549250600191506112df565b826004600383815481106112a4576112a3611db8565b5b906000526020600020016040516112bb9190611e8a565b908152602001604051809103902054036112de5781806112da90612080565b9250505b5b80806001019150506111f6565b5060018111156112fb57600192505b821561133a57611309611461565b7f8d1085cd9eceaab0b77fd20c66dea55df08e5ef2d52859c2cb4a1e16ba9476c060405160405180910390a161145c565b600060038054905067ffffffffffffffff81111561135b5761135a611abc565b5b6040519080825280602002602001820160405280156113895781602001602082028036833780820191505090505b50905060005b600380549050811015611404576004600382815481106113b2576113b1611db8565b5b906000526020600020016040516113c99190611e8a565b9081526020016040518091039020548282815181106113eb576113ea611db8565b5b602002602001018181525050808060010191505061138f565b506000600260006101000a81548160ff0219169083151502179055507f5307445eae14e5c3a1fd633e10241b45b785bc0041c676494a1d9b20ee8898b560038260405161145292919061247b565b60405180910390a1505b505050565b60005b6003805490508110156114bf57600060046003838154811061148957611488611db8565b5b906000526020600020016040516114a09190611e8a565b9081526020016040518091039020819055508080600101915050611464565b5060005b60078054905081101561160957600060056000600784815481106114ea576114e9611db8565b5b9060005260206000200160009054906101000a900473ffffffffffffffffffffffffffffffffffffffff1673ffffffffffffffffffffffffffffffffffffffff1673ffffffffffffffffffffffffffffffffffffffff16815260200190815260200160002060006101000a81548160ff021916908315150217905550600060066000600784815481106115805761157f611db8565b5b9060005260206000200160009054906101000a900473ffffffffffffffffffffffffffffffffffffffff1673ffffffffffffffffffffffffffffffffffffffff1673ffffffffffffffffffffffffffffffffffffffff16815260200190815260200160002060006101000a81548160ff02191690831515021790555080806001019150506114c3565b5060076000611618919061163d565b60006001819055506001600260006101000a81548160ff021916908315150217905550565b508054600082559060005260206000209081019061165b919061165e565b50565b5b8082111561167757600081600090555060010161165f565b5090565b6000604051905090565b600080fd5b600080fd5b600073ffffffffffffffffffffffffffffffffffffffff82169050919050565b60006116ba8261168f565b9050919050565b6116ca816116af565b81146116d557600080fd5b50565b6000813590506116e7816116c1565b92915050565b60006020828403121561170357611702611685565b5b6000611711848285016116d8565b91505092915050565b60008115159050919050565b61172f8161171a565b82525050565b600060208201905061174a6000830184611726565b92915050565b600081519050919050565b600082825260208201905092915050565b6000819050602082019050919050565b600081519050919050565b600082825260208201905092915050565b60005b838110156117b657808201518184015260208101905061179b565b60008484015250505050565b6000601f19601f8301169050919050565b60006117de8261177c565b6117e88185611787565b93506117f8818560208601611798565b611801816117c2565b840191505092915050565b600061181883836117d3565b905092915050565b6000602082019050919050565b600061183882611750565b611842818561175b565b9350836020820285016118548561176c565b8060005b858110156118905784840389528151611871858261180c565b945061187c83611820565b925060208a01995050600181019050611858565b50829750879550505050505092915050565b600060208201905081810360008301526118bc818461182d565b905092915050565b6000819050919050565b6118d7816118c4565b81146118e257600080fd5b50565b6000813590506118f4816118ce565b92915050565b6000602082840312156119105761190f611685565b5b600061191e848285016118e5565b91505092915050565b600082825260208201905092915050565b60006119438261177c565b61194d8185611927565b935061195d818560208601611798565b611966816117c2565b840191505092915050565b6000602082019050818103600083015261198b8184611938565b905092915050565b61199c816118c4565b82525050565b60006020820190506119b76000830184611993565b92915050565b600081519050919050565b600082825260208201905092915050565b6000819050602082019050919050565b6119f2816118c4565b82525050565b6000611a0483836119e9565b60208301905092915050565b6000602082019050919050565b6000611a28826119bd565b611a3281856119c8565b9350611a3d836119d9565b8060005b83811015611a6e578151611a5588826119f8565b9750611a6083611a10565b925050600181019050611a41565b5085935050505092915050565b60006040820190508181036000830152611a95818561182d565b90508181036020830152611aa98184611a1d565b90509392505050565b600080fd5b600080fd5b7f4e487b7100000000000000000000000000000000000000000000000000000000600052604160045260246000fd5b611af4826117c2565b810181811067ffffffffffffffff82111715611b1357611b12611abc565b5b80604052505050565b6000611b2661167b565b9050611b328282611aeb565b919050565b600067ffffffffffffffff821115611b5257611b51611abc565b5b611b5b826117c2565b9050602081019050919050565b82818337600083830152505050565b6000611b8a611b8584611b37565b611b1c565b905082815260208101848484011115611ba657611ba5611ab7565b5b611bb1848285611b68565b509392505050565b600082601f830112611bce57611bcd611ab2565b5b8135611bde848260208601611b77565b91505092915050565b600060208284031215611bfd57611bfc611685565b5b600082013567ffffffffffffffff811115611c1b57611c1a61168a565b5b611c2784828501611bb9565b91505092915050565b611c39816116af565b82525050565b6000602082019050611c546000830184611c30565b92915050565b7f4e487b7100000000000000000000000000000000000000000000000000000000600052602260045260246000fd5b60006002820490506001821680611ca157607f821691505b602082108103611cb457611cb3611c5a565b5b50919050565b7f4f6e6c792061646d696e2063616e2063616c6c20746869732066756e6374696f60008201527f6e00000000000000000000000000000000000000000000000000000000000000602082015250565b6000611d16602183611927565b9150611d2182611cba565b604082019050919050565b60006020820190508181036000830152611d4581611d09565b9050919050565b7f456c656374696f6e20697320616c726561647920616374697665000000000000600082015250565b6000611d82601a83611927565b9150611d8d82611d4c565b602082019050919050565b60006020820190508181036000830152611db181611d75565b9050919050565b7f4e487b7100000000000000000000000000000000000000000000000000000000600052603260045260246000fd5b600081905092915050565b60008190508160005260206000209050919050565b60008154611e1481611c89565b611e1e8186611de7565b94506001821660008114611e395760018114611e4e57611e81565b60ff1983168652811515820286019350611e81565b611e5785611df2565b60005b83811015611e7957815481890152600182019150602081019050611e5a565b838801955050505b50505092915050565b6000611e968284611e07565b915081905092915050565b7f456c656374696f6e206973207374696c6c206163746976650000000000000000600082015250565b6000611ed7601883611927565b9150611ee282611ea1565b602082019050919050565b60006020820190508181036000830152611f0681611eca565b9050919050565b7f456c656374696f6e206973206e6f742061637469766500000000000000000000600082015250565b6000611f43601683611927565b9150611f4e82611f0d565b602082019050919050565b60006020820190508181036000830152611f7281611f36565b9050919050565b7f416c726561647920726567697374657265642e00000000000000000000000000600082015250565b6000611faf601383611927565b9150611fba82611f79565b602082019050919050565b60006020820190508181036000830152611fde81611fa2565b9050919050565b7f4d6178696d756d206e756d626572206f6620766f746572732072656163686564600082015250565b600061201b602083611927565b915061202682611fe5565b602082019050919050565b6000602082019050818103600083015261204a8161200e565b9050919050565b7f4e487b7100000000000000000000000000000000000000000000000000000000600052601160045260246000fd5b600061208b826118c4565b91507fffffffffffffffffffffffffffffffffffffffffffffffffffffffffffffffff82036120bd576120bc612051565b5b600182019050919050565b7f596f75206d757374206265207265676973746572656420746f20766f74652e00600082015250565b60006120fe601f83611927565b9150612109826120c8565b602082019050919050565b6000602082019050818103600083015261212d816120f1565b9050919050565b7f596f75206861766520616c726561647920766f7465642e000000000000000000600082015250565b600061216a601783611927565b915061217582612134565b602082019050919050565b600060208201905081810360008301526121998161215d565b9050919050565b7f496e76616c69642063616e6469646174652e0000000000000000000000000000600082015250565b60006121d6601283611927565b91506121e1826121a0565b602082019050919050565b60006020820190508181036000830152612205816121c9565b9050919050565b60006122178261177c565b6122218185611de7565b9350612231818560208601611798565b80840191505092915050565b6000612249828461220c565b915081905092915050565b600081905092915050565b60008190508160005260206000209050919050565b6000815461228181611c89565b61228b8186612254565b945060018216600081146122a657600181146122bb576122ee565b60ff19831686528115158202860193506122ee565b6122c48561225f565b60005b838110156122e6578154818901526001820191506020810190506122c7565b838801955050505b50505092915050565b60006123038284612274565b915081905092915050565b6000612319826118c4565b9150612324836118c4565b925082820190508082111561233c5761233b612051565b5b92915050565b600081549050919050565b60008190508160005260206000209050919050565b6000815461236f81611c89565b6123798186611787565b9450600182166000811461239457600181146123aa576123dd565b60ff1983168652811515602002860193506123dd565b6123b385611df2565b60005b838110156123d5578154818901526001820191506020810190506123b6565b808801955050505b50505092915050565b60006123f28383612362565b905092915050565b6000600182019050919050565b600061241282612342565b61241c818561175b565b93508360208202850161242e8561234d565b8060005b858110156124695784840389528161244a85826123e6565b9450612455836123fa565b925060208a01995050600181019050612432565b50829750879550505050505092915050565b600060408201905081810360008301526124958185612407565b905081810360208301526124a98184611a1d565b9050939250505056fea264697066735822122062cadc10155691a2954f1a74e119deef8e9ec22ecbf2459728caa0db8632c96664736f6c634300081c0033",
  "linkReferences": {},
  "deployedLinkReferences": {}
}